:100000000C9472000C9491000C9491000C9491004B
:100010000C9491000C9491000C9491000C9491001C
:100020000C9491000C9491000C9491000C94E800B5
:100030000C9491000C9491000C9491000C949100FC
:100040000C9491000C9491000C9491000C949100EC
:100050000C9491000C943A010C9491000C94910032
:100060000C9491000C94B0010C945A020C949100E1
:100070000C9491000C9491000C9491000C949100BC
:100080000C9491000C9491000C9491000C949100AC
:100090000C9491000C9491000C9491000C9491009C
:1000A0000C9491000C9491000C9491000C9491008C
:1000B0000C9491000C9491000C9491000C9491007C
:1000C0000C9491000C9491000C9491000C9491006C
:1000D0000C9491000C9491000C9491000C9491005C
:1000E0000C94910011241FBECFEFD1E2DEBFCDBF33
:1000F00000E00CBF12E0A0E0B2E0E8E9F6E002C0E8
:1001000005900D92AC30B107D9F712E0ACE0B2E047
:1001100001C01D92A132B107E1F70E9493000C9437
:100120004B030C9400008FEF84B915B810920701AF
:1001300080930801F8940E94A2010E94BE000E94D0
:10014000C900109219021092180287E090E0909373
:100150001502809314021092170210921602109248
:100160001B0210921A02789480911A0290911B023D
:10017000009719F00E94FB00F7CFFFCF82E084BD0B
:1001800095E095BD93EC97B918B880936E0016BCB6
:10019000089584E0809368008FEF80936D00089548
:1001A000209114023091150281E090E002C0880F86
:1001B000991F2A95E2F7809585B984EF91E00E9416
:1001C0000E038FEF85B984EF91E00E940E0308952E
:1001D00078941F920F920FB60F9211248F938091F3
:1001E000060180931A0210921B028F910F900FBE8E
:1001F0000F901F901895F89480911A0280FD37C0D7
:10020000109215021092140224C081E090E01DC0EB
:1002100082FD03C082E090E018C083FD03C083E04C
:1002200090E013C084FD03C084E090E00EC085FD23
:1002300003C085E090E009C086FD03C086E090E041
:1002400004C087FD06C087E090E09093150280937C
:10025000140210921702109216020E94D0008FEF23
:1002600085B910921B0210921A027894089581FDAC
:10027000CFCFCBCF1F920F920FB60F9211242F9397
:100280003F935F936F937F938F939F93AF93BF93AE
:10029000809118029091190201969093190280930F
:1002A0001802809118029091190268E77EE10E947D
:1002B00037030097C1F4209116023091170281E0B4
:1002C00090E0022E02C0880F991F0A94E2F78095F1
:1002D00085B92F5F3F4F309317022093160210927B
:1002E0001902109218022091160230911702809183
:1002F0001402909115028217930720F410921702AE
:1003000010921602BF91AF919F918F917F916F9143
:100310005F913F912F910F900FBE0F901F901895F6
:10032000F999FECF92BD81BD81E08FBB80B5089564
:10033000F999FECF92BD81BD60BD84E08FBB82E0A4
:100340008FBB08951092C50083E38093C40086E0BC
:100350008093C20088E98093C1001092C000089584
:100360001F920F920FB60F920BB60F9211242F937C
:100370003F934F935F936F937F938F939F93AF932D
:10038000BF93EF93FF93F8948091C60080931E0271
:1003900080911E028A3181F481E090E020910E026A
:1003A00030910F022115310511F080E090E090931B
:1003B0000F0280930E0215C080911E02893139F41C
:1003C00081E090E090931102809310020AC0809126
:1003D0001E028E3031F481E090E0909313028093FE
:1003E000120280910E0290910F02009709F449C009
:1003F00080911E028A3109F444C080911E02893125
:1004000009F43FC080911F029091200220E18030CA
:10041000920721F410920F0210920E0280911E0298
:10042000883201F580911F0290912002009771F0AF
:1004300080911F0290912002019790932002809357
:100440001F0280911F029091200202C080E090E084
:100450009093200280931F0280911F0290912002AE
:100460006FEF0DC080911F02909120029C012F5FC1
:100470003F4F3093200220931F0260911E020E9482
:1004800098018091C10080628093C1007894FF91AF
:10049000EF91BF91AF919F918F917F916F915F91FC
:1004A0004F913F912F910F900BBE0F900FBE0F9069
:1004B0001F9018951F920F920FB60F920BB60F92C6
:1004C0001124EF92FF920F931F932F933F934F931B
:1004D0005F936F937F938F939F93AF93BF93EF93AC
:1004E000FF93DF93CF93CDB7DEB72F97DEBFCDBF9E
:1004F000F894DE011596E0E0F2E08BE001900D92B9
:100500008150E1F78091100290911102009711F152
:1005100080911F029091200290931D0280931C02F3
:1005200000E010E00BC08091C00085FFFCCFC80147
:100530000E9490018093C6000F5F1F4F80911C02A4
:1005400090911D020817190770F310921102109272
:10055000100242C080911202909113020097C1F1E3
:1005600080911F0290912002009721F48D81809349
:10057000C60029C080911F0290912002FE01319691
:1005800020E030E00AE010E045E0E42EF12CEC0E33
:10059000FD1E0BC0B8010E943703D701A80FB91F79
:1005A0008C9181932F5F3F4FCB01009799F7CE013C
:1005B0000196FC01E20FF31F03C022912093C600B5
:1005C000E817F907D1F7109213021092120204C033
:1005D00080911E028093C6008091C1008F7D809320
:1005E000C10078942F96DEBFCDBFCF91DF91FF91F0
:1005F000EF91BF91AF919F918F917F916F915F919B
:100600004F913F912F911F910F91FF90EF900F907D
:100610000BBE0F900FBE0F901F901895DF93CF93D6
:1006200000D00F92CDB7DEB71A82198214C01C8297
:100630001B8206C02B813C812F5F3F4F3C832B8365
:100640002B813C8128173907A8F329813A812F5F34
:100650003F4F3A83298329813A812817390738F394
:100660000F900F900F900F90CF91DF910895AA1BDC
:10067000BB1B51E107C0AA1FBB1FA617B70710F08D
:10068000A61BB70B881F991F5A95A9F780959095BF
:08069000BC01CD010895FFCF6C
:0C06980030313233343536373839000049
:00000001FF
