:100000000C9472000C9491000C9491000C9491004B
:100010000C9491000C9491000C9491000C9491001C
:100020000C9491000C9491000C9491000C944A0152
:100030000C9491000C9491000C9491000C949100FC
:100040000C9491000C9491000C9491000C949100EC
:100050000C9491000C94AC000C9491000C949100C1
:100060000C9491000C9491000C9491000C949100CC
:100070000C9491000C9491000C9491000C949100BC
:100080000C9491000C9491000C9491000C949100AC
:100090000C9491000C9491000C9491000C9491009C
:1000A0000C9491000C9491000C9491000C9491008C
:1000B0000C9491000C9491000C9491000C9491007C
:1000C0000C9491000C9491000C9491000C9491006C
:1000D0000C9491000C9491000C9491000C9491005C
:1000E0000C94910011241FBECFEFD1E2DEBFCDBF33
:1000F00000E00CBF12E0A0E0B2E0EAE4F3E002C0EE
:1001000005900D92A230B107D9F712E0A2E0B2E05B
:1001100001C01D92A830B107E1F70E9493000C9432
:10012000A4010C9400008FEF84B915B81092070158
:1001300080930801F8940E94A1000E94FE00789428
:10014000FFCF82E084BD95E095BD93EC97BD18BCD0
:1001500080936E0016BC08951F920F920FB60F92F7
:1001600011242F933F935F936F937F938F939F936C
:10017000AF93BF93809104029091050201969093F2
:1001800005028093040268E270E00E9490010097EB
:10019000C1F4209102023091030281E090E0022E2E
:1001A00002C0880F991F0A94E2F7809585B92F5FE6
:1001B0003F4F3093030220930202109205021092E7
:1001C000040220910202309103028091000290917A
:1001D00001028217930720F4109203021092020288
:1001E000BF91AF919F918F917F916F915F913F915F
:1001F0002F910F900FBE0F901F90189584E0809361
:100200006800EDE6F0E080818FEF80830895209113
:1002100000023091010281E090E0AC0102C0440F85
:10022000551F2A95E2F79A01209525B92FEF31EE57
:1002300044E0215030404040E1F700C000002091F0
:10024000000230910102AC0102C0440F551F2A95F3
:10025000E2F79A01209525B92FEF31EE44E02150C5
:1002600030404040E1F700C0000020910002309192
:10027000010202C0880F991F2A95E2F7809585B97F
:100280008FEF91EEA4E081509040A040E1F700C0D4
:10029000000008951F920F920FB60F9211248F93B2
:1002A0009F938091060190E08095909580FF05C016
:1002B000109201021092000226C081FF03C081E06B
:1002C00090E01DC082FF03C082E090E018C083FF71
:1002D00003C083E090E013C084FF03C084E090E09B
:1002E0000EC085FF03C085E090E009C086FF03C013
:1002F00086E090E004C087FF06C087E090E090931E
:1003000001028093000210920302109202028EEF0B
:1003100085B99F918F910F900FBE0F901F901895E8
:10032000AA1BBB1B51E107C0AA1FBB1FA617B7071B
:1003300010F0A61BB70B881F991F5A95A9F7809537
:0A0340009095BC01CD010895FFCF98
:02034A000700AA
:00000001FF
